{
  "contractName": "ArtNFT",
  "abi": [
    {
      "inputs": [],
      "stateMutability": "nonpayable",
      "type": "constructor"
    },
    {
      "anonymous": false,
      "inputs": [
        {
          "indexed": true,
          "internalType": "address",
          "name": "account",
          "type": "address"
        },
        {
          "indexed": true,
          "internalType": "address",
          "name": "operator",
          "type": "address"
        },
        {
          "indexed": false,
          "internalType": "bool",
          "name": "approved",
          "type": "bool"
        }
      ],
      "name": "ApprovalForAll",
      "type": "event"
    },
    {
      "anonymous": false,
      "inputs": [
        {
          "indexed": true,
          "internalType": "address",
          "name": "previousOwner",
          "type": "address"
        },
        {
          "indexed": true,
          "internalType": "address",
          "name": "newOwner",
          "type": "address"
        }
      ],
      "name": "OwnershipTransferred",
      "type": "event"
    },
    {
      "anonymous": false,
      "inputs": [
        {
          "indexed": true,
          "internalType": "address",
          "name": "operator",
          "type": "address"
        },
        {
          "indexed": true,
          "internalType": "address",
          "name": "from",
          "type": "address"
        },
        {
          "indexed": true,
          "internalType": "address",
          "name": "to",
          "type": "address"
        },
        {
          "indexed": false,
          "internalType": "uint256[]",
          "name": "ids",
          "type": "uint256[]"
        },
        {
          "indexed": false,
          "internalType": "uint256[]",
          "name": "values",
          "type": "uint256[]"
        }
      ],
      "name": "TransferBatch",
      "type": "event"
    },
    {
      "anonymous": false,
      "inputs": [
        {
          "indexed": true,
          "internalType": "address",
          "name": "operator",
          "type": "address"
        },
        {
          "indexed": true,
          "internalType": "address",
          "name": "from",
          "type": "address"
        },
        {
          "indexed": true,
          "internalType": "address",
          "name": "to",
          "type": "address"
        },
        {
          "indexed": false,
          "internalType": "uint256",
          "name": "id",
          "type": "uint256"
        },
        {
          "indexed": false,
          "internalType": "uint256",
          "name": "value",
          "type": "uint256"
        }
      ],
      "name": "TransferSingle",
      "type": "event"
    },
    {
      "anonymous": false,
      "inputs": [
        {
          "indexed": false,
          "internalType": "string",
          "name": "value",
          "type": "string"
        },
        {
          "indexed": true,
          "internalType": "uint256",
          "name": "id",
          "type": "uint256"
        }
      ],
      "name": "URI",
      "type": "event"
    },
    {
      "inputs": [
        {
          "internalType": "address",
          "name": "account",
          "type": "address"
        },
        {
          "internalType": "uint256",
          "name": "id",
          "type": "uint256"
        }
      ],
      "name": "balanceOf",
      "outputs": [
        {
          "internalType": "uint256",
          "name": "",
          "type": "uint256"
        }
      ],
      "stateMutability": "view",
      "type": "function"
    },
    {
      "inputs": [
        {
          "internalType": "address[]",
          "name": "accounts",
          "type": "address[]"
        },
        {
          "internalType": "uint256[]",
          "name": "ids",
          "type": "uint256[]"
        }
      ],
      "name": "balanceOfBatch",
      "outputs": [
        {
          "internalType": "uint256[]",
          "name": "",
          "type": "uint256[]"
        }
      ],
      "stateMutability": "view",
      "type": "function"
    },
    {
      "inputs": [],
      "name": "costs",
      "outputs": [
        {
          "internalType": "uint256",
          "name": "",
          "type": "uint256"
        }
      ],
      "stateMutability": "view",
      "type": "function"
    },
    {
      "inputs": [
        {
          "internalType": "address",
          "name": "account",
          "type": "address"
        },
        {
          "internalType": "address",
          "name": "operator",
          "type": "address"
        }
      ],
      "name": "isApprovedForAll",
      "outputs": [
        {
          "internalType": "bool",
          "name": "",
          "type": "bool"
        }
      ],
      "stateMutability": "view",
      "type": "function"
    },
    {
      "inputs": [],
      "name": "name",
      "outputs": [
        {
          "internalType": "string",
          "name": "",
          "type": "string"
        }
      ],
      "stateMutability": "view",
      "type": "function"
    },
    {
      "inputs": [],
      "name": "owner",
      "outputs": [
        {
          "internalType": "address",
          "name": "",
          "type": "address"
        }
      ],
      "stateMutability": "view",
      "type": "function"
    },
    {
      "inputs": [],
      "name": "renounceOwnership",
      "outputs": [],
      "stateMutability": "nonpayable",
      "type": "function"
    },
    {
      "inputs": [
        {
          "internalType": "address",
          "name": "from",
          "type": "address"
        },
        {
          "internalType": "address",
          "name": "to",
          "type": "address"
        },
        {
          "internalType": "uint256[]",
          "name": "ids",
          "type": "uint256[]"
        },
        {
          "internalType": "uint256[]",
          "name": "amounts",
          "type": "uint256[]"
        },
        {
          "internalType": "bytes",
          "name": "data",
          "type": "bytes"
        }
      ],
      "name": "safeBatchTransferFrom",
      "outputs": [],
      "stateMutability": "nonpayable",
      "type": "function"
    },
    {
      "inputs": [
        {
          "internalType": "address",
          "name": "from",
          "type": "address"
        },
        {
          "internalType": "address",
          "name": "to",
          "type": "address"
        },
        {
          "internalType": "uint256",
          "name": "id",
          "type": "uint256"
        },
        {
          "internalType": "uint256",
          "name": "amount",
          "type": "uint256"
        },
        {
          "internalType": "bytes",
          "name": "data",
          "type": "bytes"
        }
      ],
      "name": "safeTransferFrom",
      "outputs": [],
      "stateMutability": "nonpayable",
      "type": "function"
    },
    {
      "inputs": [
        {
          "internalType": "address",
          "name": "operator",
          "type": "address"
        },
        {
          "internalType": "bool",
          "name": "approved",
          "type": "bool"
        }
      ],
      "name": "setApprovalForAll",
      "outputs": [],
      "stateMutability": "nonpayable",
      "type": "function"
    },
    {
      "inputs": [],
      "name": "store",
      "outputs": [
        {
          "internalType": "address",
          "name": "",
          "type": "address"
        }
      ],
      "stateMutability": "view",
      "type": "function"
    },
    {
      "inputs": [
        {
          "internalType": "bytes4",
          "name": "interfaceId",
          "type": "bytes4"
        }
      ],
      "name": "supportsInterface",
      "outputs": [
        {
          "internalType": "bool",
          "name": "",
          "type": "bool"
        }
      ],
      "stateMutability": "view",
      "type": "function"
    },
    {
      "inputs": [
        {
          "internalType": "address",
          "name": "newOwner",
          "type": "address"
        }
      ],
      "name": "transferOwnership",
      "outputs": [],
      "stateMutability": "nonpayable",
      "type": "function"
    },
    {
      "inputs": [
        {
          "internalType": "uint256",
          "name": "",
          "type": "uint256"
        }
      ],
      "name": "uri",
      "outputs": [
        {
          "internalType": "string",
          "name": "",
          "type": "string"
        }
      ],
      "stateMutability": "view",
      "type": "function"
    },
    {
      "inputs": [
        {
          "internalType": "string",
          "name": "_newuri",
          "type": "string"
        }
      ],
      "name": "setURI",
      "outputs": [],
      "stateMutability": "nonpayable",
      "type": "function"
    },
    {
      "inputs": [
        {
          "internalType": "string",
          "name": "_name",
          "type": "string"
        }
      ],
      "name": "setName",
      "outputs": [],
      "stateMutability": "nonpayable",
      "type": "function"
    },
    {
      "inputs": [
        {
          "internalType": "uint256[]",
          "name": "ids",
          "type": "uint256[]"
        },
        {
          "internalType": "uint256[]",
          "name": "amounts",
          "type": "uint256[]"
        }
      ],
      "name": "mintBatch",
      "outputs": [],
      "stateMutability": "payable",
      "type": "function"
    },
    {
      "inputs": [
        {
          "internalType": "uint256",
          "name": "id",
          "type": "uint256"
        },
        {
          "internalType": "uint256",
          "name": "amount",
          "type": "uint256"
        }
      ],
      "name": "mint",
      "outputs": [],
      "stateMutability": "payable",
      "type": "function"
    }
  ],
  "bytecode": "0x608060405266b1a2bc2ec500006006553480156200001c57600080fd5b506040518060600160405280603f8152602001620039d3603f9139620000576200004b620000b560201b60201c565b620000bd60201b60201c565b62000068816200018160201b60201c565b50620000af6040518060400160405280601081526020017f4d5920636f6c6c65637469626c657a7a000000000000000000000000000000008152506200019d60201b60201c565b62000409565b600033905090565b60008060009054906101000a900473ffffffffffffffffffffffffffffffffffffffff169050816000806101000a81548173ffffffffffffffffffffffffffffffffffffffff021916908373ffffffffffffffffffffffffffffffffffffffff1602179055508173ffffffffffffffffffffffffffffffffffffffff168173ffffffffffffffffffffffffffffffffffffffff167f8be0079c531659141344cd1fd0a4f28419497f9722a3daafe3b4186f6b6457e060405160405180910390a35050565b80600390805190602001906200019992919062000271565b5050565b620001ad620000b560201b60201c565b73ffffffffffffffffffffffffffffffffffffffff16620001d36200024860201b60201c565b73ffffffffffffffffffffffffffffffffffffffff16146200022c576040517f08c379a0000000000000000000000000000000000000000000000000000000008152600401620002239062000382565b60405180910390fd5b80600590805190602001906200024492919062000271565b5050565b60008060009054906101000a900473ffffffffffffffffffffffffffffffffffffffff16905090565b8280546200027f90620003d3565b90600052602060002090601f016020900481019282620002a35760008555620002ef565b82601f10620002be57805160ff1916838001178555620002ef565b82800160010185558215620002ef579182015b82811115620002ee578251825591602001919060010190620002d1565b5b509050620002fe919062000302565b5090565b5b808211156200031d57600081600090555060010162000303565b5090565b600082825260208201905092915050565b7f4f776e61626c653a2063616c6c6572206973206e6f7420746865206f776e6572600082015250565b60006200036a60208362000321565b9150620003778262000332565b602082019050919050565b600060208201905081810360008301526200039d816200035b565b9050919050565b7f4e487b7100000000000000000000000000000000000000000000000000000000600052602260045260246000fd5b60006002820490506001821680620003ec57607f821691505b60208210811415620004035762000402620003a4565b5b50919050565b6135ba80620004196000396000f3fe6080604052600436106101085760003560e01c8063776d62f611610095578063c47f002711610064578063c47f00271461035b578063d351cfdc14610384578063e985e9c5146103a0578063f242432a146103dd578063f2fde38b1461040657610108565b8063776d62f6146102b15780638da5cb5b146102dc578063975057e714610307578063a22cb4651461033257610108565b80630e89341c116100dc5780630e89341c146101db5780631b2ef1ca146102185780632eb2c2d6146102345780634e1273f41461025d578063715018a61461029a57610108565b8062fdd58e1461010d57806301ffc9a71461014a57806302fe53051461018757806306fdde03146101b0575b600080fd5b34801561011957600080fd5b50610134600480360381019061012f9190612034565b61042f565b6040516101419190612083565b60405180910390f35b34801561015657600080fd5b50610171600480360381019061016c91906120f6565b6104f9565b60405161017e919061213e565b60405180910390f35b34801561019357600080fd5b506101ae60048036038101906101a9919061229f565b6105db565b005b3480156101bc57600080fd5b506101c5610663565b6040516101d29190612370565b60405180910390f35b3480156101e757600080fd5b5061020260048036038101906101fd9190612392565b6106f1565b60405161020f9190612370565b60405180910390f35b610232600480360381019061022d91906123bf565b610785565b005b34801561024057600080fd5b5061025b60048036038101906102569190612568565b610820565b005b34801561026957600080fd5b50610284600480360381019061027f91906126fa565b6108c1565b6040516102919190612830565b60405180910390f35b3480156102a657600080fd5b506102af6109da565b005b3480156102bd57600080fd5b506102c6610a62565b6040516102d39190612083565b60405180910390f35b3480156102e857600080fd5b506102f1610a68565b6040516102fe9190612861565b60405180910390f35b34801561031357600080fd5b5061031c610a91565b6040516103299190612861565b60405180910390f35b34801561033e57600080fd5b50610359600480360381019061035491906128a8565b610ab7565b005b34801561036757600080fd5b50610382600480360381019061037d919061229f565b610acd565b005b61039e600480360381019061039991906128e8565b610b63565b005b3480156103ac57600080fd5b506103c760048036038101906103c29190612960565b610bfe565b6040516103d4919061213e565b60405180910390f35b3480156103e957600080fd5b5061040460048036038101906103ff91906129a0565b610c92565b005b34801561041257600080fd5b5061042d60048036038101906104289190612a37565b610d33565b005b60008073ffffffffffffffffffffffffffffffffffffffff168373ffffffffffffffffffffffffffffffffffffffff1614156104a0576040517f08c379a000000000000000000000000000000000000000000000000000000000815260040161049790612ad6565b60405180910390fd5b6001600083815260200190815260200160002060008473ffffffffffffffffffffffffffffffffffffffff1673ffffffffffffffffffffffffffffffffffffffff16815260200190815260200160002054905092915050565b60007fd9b67a26000000000000000000000000000000000000000000000000000000007bffffffffffffffffffffffffffffffffffffffffffffffffffffffff1916827bffffffffffffffffffffffffffffffffffffffffffffffffffffffff191614806105c457507f0e89341c000000000000000000000000000000000000000000000000000000007bffffffffffffffffffffffffffffffffffffffffffffffffffffffff1916827bffffffffffffffffffffffffffffffffffffffffffffffffffffffff1916145b806105d457506105d382610e2b565b5b9050919050565b6105e3610e95565b73ffffffffffffffffffffffffffffffffffffffff16610601610a68565b73ffffffffffffffffffffffffffffffffffffffff1614610657576040517f08c379a000000000000000000000000000000000000000000000000000000000815260040161064e90612b42565b60405180910390fd5b61066081610e9d565b50565b6005805461067090612b91565b80601f016020809104026020016040519081016040528092919081815260200182805461069c90612b91565b80156106e95780601f106106be576101008083540402835291602001916106e9565b820191906000526020600020905b8154815290600101906020018083116106cc57829003601f168201915b505050505081565b60606003805461070090612b91565b80601f016020809104026020016040519081016040528092919081815260200182805461072c90612b91565b80156107795780601f1061074e57610100808354040283529160200191610779565b820191906000526020600020905b81548152906001019060200180831161075c57829003601f168201915b50505050509050919050565b61078d610e95565b73ffffffffffffffffffffffffffffffffffffffff166107ab610a68565b73ffffffffffffffffffffffffffffffffffffffff1614610801576040517f08c379a00000000000000000000000000000000000000000000000000000000081526004016107f890612b42565b60405180910390fd5b61081c33838360405180602001604052806000815250610eb7565b5050565b610828610e95565b73ffffffffffffffffffffffffffffffffffffffff168573ffffffffffffffffffffffffffffffffffffffff16148061086e575061086d85610868610e95565b610bfe565b5b6108ad576040517f08c379a00000000000000000000000000000000000000000000000000000000081526004016108a490612c35565b60405180910390fd5b6108ba8585858585611069565b5050505050565b60608151835114610907576040517f08c379a00000000000000000000000000000000000000000000000000000000081526004016108fe90612cc7565b60405180910390fd5b6000835167ffffffffffffffff81111561092457610923612174565b5b6040519080825280602002602001820160405280156109525781602001602082028036833780820191505090505b50905060005b84518110156109cf5761099f85828151811061097757610976612ce7565b5b602002602001015185838151811061099257610991612ce7565b5b602002602001015161042f565b8282815181106109b2576109b1612ce7565b5b602002602001018181525050806109c890612d45565b9050610958565b508091505092915050565b6109e2610e95565b73ffffffffffffffffffffffffffffffffffffffff16610a00610a68565b73ffffffffffffffffffffffffffffffffffffffff1614610a56576040517f08c379a0000000000000000000000000000000000000000000000000000000008152600401610a4d90612b42565b60405180910390fd5b610a60600061138e565b565b60065481565b60008060009054906101000a900473ffffffffffffffffffffffffffffffffffffffff16905090565b600760009054906101000a900473ffffffffffffffffffffffffffffffffffffffff1681565b610ac9610ac2610e95565b8383611452565b5050565b610ad5610e95565b73ffffffffffffffffffffffffffffffffffffffff16610af3610a68565b73ffffffffffffffffffffffffffffffffffffffff1614610b49576040517f08c379a0000000000000000000000000000000000000000000000000000000008152600401610b4090612b42565b60405180910390fd5b8060059080519060200190610b5f929190611ee9565b5050565b610b6b610e95565b73ffffffffffffffffffffffffffffffffffffffff16610b89610a68565b73ffffffffffffffffffffffffffffffffffffffff1614610bdf576040517f08c379a0000000000000000000000000000000000000000000000000000000008152600401610bd690612b42565b60405180910390fd5b610bfa338383604051806020016040528060008152506115bf565b5050565b6000600260008473ffffffffffffffffffffffffffffffffffffffff1673ffffffffffffffffffffffffffffffffffffffff16815260200190815260200160002060008373ffffffffffffffffffffffffffffffffffffffff1673ffffffffffffffffffffffffffffffffffffffff16815260200190815260200160002060009054906101000a900460ff16905092915050565b610c9a610e95565b73ffffffffffffffffffffffffffffffffffffffff168573ffffffffffffffffffffffffffffffffffffffff161480610ce05750610cdf85610cda610e95565b610bfe565b5b610d1f576040517f08c379a0000000000000000000000000000000000000000000000000000000008152600401610d1690612e00565b60405180910390fd5b610d2c85858585856117ed565b5050505050565b610d3b610e95565b73ffffffffffffffffffffffffffffffffffffffff16610d59610a68565b73ffffffffffffffffffffffffffffffffffffffff1614610daf576040517f08c379a0000000000000000000000000000000000000000000000000000000008152600401610da690612b42565b60405180910390fd5b600073ffffffffffffffffffffffffffffffffffffffff168173ffffffffffffffffffffffffffffffffffffffff161415610e1f576040517f08c379a0000000000000000000000000000000000000000000000000000000008152600401610e1690612e92565b60405180910390fd5b610e288161138e565b50565b60007f01ffc9a7000000000000000000000000000000000000000000000000000000007bffffffffffffffffffffffffffffffffffffffffffffffffffffffff1916827bffffffffffffffffffffffffffffffffffffffffffffffffffffffff1916149050919050565b600033905090565b8060039080519060200190610eb3929190611ee9565b5050565b600073ffffffffffffffffffffffffffffffffffffffff168473ffffffffffffffffffffffffffffffffffffffff161415610f27576040517f08c379a0000000000000000000000000000000000000000000000000000000008152600401610f1e90612f24565b60405180910390fd5b6000610f31610e95565b90506000610f3e85611a8c565b90506000610f4b85611a8c565b9050610f5c83600089858589611b06565b846001600088815260200190815260200160002060008973ffffffffffffffffffffffffffffffffffffffff1673ffffffffffffffffffffffffffffffffffffffff1681526020019081526020016000206000828254610fbc9190612f44565b925050819055508673ffffffffffffffffffffffffffffffffffffffff16600073ffffffffffffffffffffffffffffffffffffffff168473ffffffffffffffffffffffffffffffffffffffff167fc3d58168c5ae7397731d063d5bbf3d657854427343f4c083240f7aacaa2d0f62898960405161103a929190612f9a565b60405180910390a461105183600089858589611b0e565b61106083600089898989611b16565b50505050505050565b81518351146110ad576040517f08c379a00000000000000000000000000000000000000000000000000000000081526004016110a490613035565b60405180910390fd5b600073ffffffffffffffffffffffffffffffffffffffff168473ffffffffffffffffffffffffffffffffffffffff16141561111d576040517f08c379a0000000000000000000000000000000000000000000000000000000008152600401611114906130c7565b60405180910390fd5b6000611127610e95565b9050611137818787878787611b06565b60005b84518110156112eb57600085828151811061115857611157612ce7565b5b60200260200101519050600085838151811061117757611176612ce7565b5b6020026020010151905060006001600084815260200190815260200160002060008b73ffffffffffffffffffffffffffffffffffffffff1673ffffffffffffffffffffffffffffffffffffffff16815260200190815260200160002054905081811015611219576040517f08c379a000000000000000000000000000000000000000000000000000000000815260040161121090613159565b60405180910390fd5b8181036001600085815260200190815260200160002060008c73ffffffffffffffffffffffffffffffffffffffff1673ffffffffffffffffffffffffffffffffffffffff16815260200190815260200160002081905550816001600085815260200190815260200160002060008b73ffffffffffffffffffffffffffffffffffffffff1673ffffffffffffffffffffffffffffffffffffffff16815260200190815260200160002060008282546112d09190612f44565b92505081905550505050806112e490612d45565b905061113a565b508473ffffffffffffffffffffffffffffffffffffffff168673ffffffffffffffffffffffffffffffffffffffff168273ffffffffffffffffffffffffffffffffffffffff167f4a39dc06d4c0dbc64b70af90fd698a233a518aa5d07e595d983b8c0526c8f7fb8787604051611362929190613179565b60405180910390a4611378818787878787611b0e565b611386818787878787611cee565b505050505050565b60008060009054906101000a900473ffffffffffffffffffffffffffffffffffffffff169050816000806101000a81548173ffffffffffffffffffffffffffffffffffffffff021916908373ffffffffffffffffffffffffffffffffffffffff1602179055508173ffffffffffffffffffffffffffffffffffffffff168173ffffffffffffffffffffffffffffffffffffffff167f8be0079c531659141344cd1fd0a4f28419497f9722a3daafe3b4186f6b6457e060405160405180910390a35050565b8173ffffffffffffffffffffffffffffffffffffffff168373ffffffffffffffffffffffffffffffffffffffff1614156114c1576040517f08c379a00000000000000000000000000000000000000000000000000000000081526004016114b890613222565b60405180910390fd5b80600260008573ffffffffffffffffffffffffffffffffffffffff1673ffffffffffffffffffffffffffffffffffffffff16815260200190815260200160002060008473ffffffffffffffffffffffffffffffffffffffff1673ffffffffffffffffffffffffffffffffffffffff16815260200190815260200160002060006101000a81548160ff0219169083151502179055508173ffffffffffffffffffffffffffffffffffffffff168373ffffffffffffffffffffffffffffffffffffffff167f17307eab39ab6107e8899845ad3d59bd9653f200f220920489ca2b5937696c31836040516115b2919061213e565b60405180910390a3505050565b600073ffffffffffffffffffffffffffffffffffffffff168473ffffffffffffffffffffffffffffffffffffffff16141561162f576040517f08c379a000000000000000000000000000000000000000000000000000000000815260040161162690612f24565b60405180910390fd5b8151835114611673576040517f08c379a000000000000000000000000000000000000000000000000000000000815260040161166a90613035565b60405180910390fd5b600061167d610e95565b905061168e81600087878787611b06565b60005b8451811015611748578381815181106116ad576116ac612ce7565b5b6020026020010151600160008784815181106116cc576116cb612ce7565b5b6020026020010151815260200190815260200160002060008873ffffffffffffffffffffffffffffffffffffffff1673ffffffffffffffffffffffffffffffffffffffff168152602001908152602001600020600082825461172e9190612f44565b92505081905550808061174090612d45565b915050611691565b508473ffffffffffffffffffffffffffffffffffffffff16600073ffffffffffffffffffffffffffffffffffffffff168273ffffffffffffffffffffffffffffffffffffffff167f4a39dc06d4c0dbc64b70af90fd698a233a518aa5d07e595d983b8c0526c8f7fb87876040516117c0929190613179565b60405180910390a46117d781600087878787611b0e565b6117e681600087878787611cee565b5050505050565b600073ffffffffffffffffffffffffffffffffffffffff168473ffffffffffffffffffffffffffffffffffffffff16141561185d576040517f08c379a0000000000000000000000000000000000000000000000000000000008152600401611854906130c7565b60405180910390fd5b6000611867610e95565b9050600061187485611a8c565b9050600061188185611a8c565b9050611891838989858589611b06565b60006001600088815260200190815260200160002060008a73ffffffffffffffffffffffffffffffffffffffff1673ffffffffffffffffffffffffffffffffffffffff16815260200190815260200160002054905085811015611929576040517f08c379a000000000000000000000000000000000000000000000000000000000815260040161192090613159565b60405180910390fd5b8581036001600089815260200190815260200160002060008b73ffffffffffffffffffffffffffffffffffffffff1673ffffffffffffffffffffffffffffffffffffffff16815260200190815260200160002081905550856001600089815260200190815260200160002060008a73ffffffffffffffffffffffffffffffffffffffff1673ffffffffffffffffffffffffffffffffffffffff16815260200190815260200160002060008282546119e09190612f44565b925050819055508773ffffffffffffffffffffffffffffffffffffffff168973ffffffffffffffffffffffffffffffffffffffff168573ffffffffffffffffffffffffffffffffffffffff167fc3d58168c5ae7397731d063d5bbf3d657854427343f4c083240f7aacaa2d0f628a8a604051611a5d929190612f9a565b60405180910390a4611a73848a8a86868a611b0e565b611a81848a8a8a8a8a611b16565b505050505050505050565b60606000600167ffffffffffffffff811115611aab57611aaa612174565b5b604051908082528060200260200182016040528015611ad95781602001602082028036833780820191505090505b5090508281600081518110611af157611af0612ce7565b5b60200260200101818152505080915050919050565b505050505050565b505050505050565b611b358473ffffffffffffffffffffffffffffffffffffffff16611ec6565b15611ce6578373ffffffffffffffffffffffffffffffffffffffff1663f23a6e6187878686866040518663ffffffff1660e01b8152600401611b7b959493929190613297565b6020604051808303816000875af1925050508015611bb757506040513d601f19601f82011682018060405250810190611bb49190613306565b60015b611c5d57611bc3613340565b806308c379a01415611c205750611bd8613362565b80611be35750611c22565b806040517f08c379a0000000000000000000000000000000000000000000000000000000008152600401611c179190612370565b60405180910390fd5b505b6040517f08c379a0000000000000000000000000000000000000000000000000000000008152600401611c549061346a565b60405180910390fd5b63f23a6e6160e01b7bffffffffffffffffffffffffffffffffffffffffffffffffffffffff1916817bffffffffffffffffffffffffffffffffffffffffffffffffffffffff191614611ce4576040517f08c379a0000000000000000000000000000000000000000000000000000000008152600401611cdb906134fc565b60405180910390fd5b505b505050505050565b611d0d8473ffffffffffffffffffffffffffffffffffffffff16611ec6565b15611ebe578373ffffffffffffffffffffffffffffffffffffffff1663bc197c8187878686866040518663ffffffff1660e01b8152600401611d5395949392919061351c565b6020604051808303816000875af1925050508015611d8f57506040513d601f19601f82011682018060405250810190611d8c9190613306565b60015b611e3557611d9b613340565b806308c379a01415611df85750611db0613362565b80611dbb5750611dfa565b806040517f08c379a0000000000000000000000000000000000000000000000000000000008152600401611def9190612370565b60405180910390fd5b505b6040517f08c379a0000000000000000000000000000000000000000000000000000000008152600401611e2c9061346a565b60405180910390fd5b63bc197c8160e01b7bffffffffffffffffffffffffffffffffffffffffffffffffffffffff1916817bffffffffffffffffffffffffffffffffffffffffffffffffffffffff191614611ebc576040517f08c379a0000000000000000000000000000000000000000000000000000000008152600401611eb3906134fc565b60405180910390fd5b505b505050505050565b6000808273ffffffffffffffffffffffffffffffffffffffff163b119050919050565b828054611ef590612b91565b90600052602060002090601f016020900481019282611f175760008555611f5e565b82601f10611f3057805160ff1916838001178555611f5e565b82800160010185558215611f5e579182015b82811115611f5d578251825591602001919060010190611f42565b5b509050611f6b9190611f6f565b5090565b5b80821115611f88576000816000905550600101611f70565b5090565b6000604051905090565b600080fd5b600080fd5b600073ffffffffffffffffffffffffffffffffffffffff82169050919050565b6000611fcb82611fa0565b9050919050565b611fdb81611fc0565b8114611fe657600080fd5b50565b600081359050611ff881611fd2565b92915050565b6000819050919050565b61201181611ffe565b811461201c57600080fd5b50565b60008135905061202e81612008565b92915050565b6000806040838503121561204b5761204a611f96565b5b600061205985828601611fe9565b925050602061206a8582860161201f565b9150509250929050565b61207d81611ffe565b82525050565b60006020820190506120986000830184612074565b92915050565b60007fffffffff0000000000000000000000000000000000000000000000000000000082169050919050565b6120d38161209e565b81146120de57600080fd5b50565b6000813590506120f0816120ca565b92915050565b60006020828403121561210c5761210b611f96565b5b600061211a848285016120e1565b91505092915050565b60008115159050919050565b61213881612123565b82525050565b6000602082019050612153600083018461212f565b92915050565b600080fd5b600080fd5b6000601f19601f8301169050919050565b7f4e487b7100000000000000000000000000000000000000000000000000000000600052604160045260246000fd5b6121ac82612163565b810181811067ffffffffffffffff821117156121cb576121ca612174565b5b80604052505050565b60006121de611f8c565b90506121ea82826121a3565b919050565b600067ffffffffffffffff82111561220a57612209612174565b5b61221382612163565b9050602081019050919050565b82818337600083830152505050565b600061224261223d846121ef565b6121d4565b90508281526020810184848401111561225e5761225d61215e565b5b612269848285612220565b509392505050565b600082601f83011261228657612285612159565b5b813561229684826020860161222f565b91505092915050565b6000602082840312156122b5576122b4611f96565b5b600082013567ffffffffffffffff8111156122d3576122d2611f9b565b5b6122df84828501612271565b91505092915050565b600081519050919050565b600082825260208201905092915050565b60005b83811015612322578082015181840152602081019050612307565b83811115612331576000848401525b50505050565b6000612342826122e8565b61234c81856122f3565b935061235c818560208601612304565b61236581612163565b840191505092915050565b6000602082019050818103600083015261238a8184612337565b905092915050565b6000602082840312156123a8576123a7611f96565b5b60006123b68482850161201f565b91505092915050565b600080604083850312156123d6576123d5611f96565b5b60006123e48582860161201f565b92505060206123f58582860161201f565b9150509250929050565b600067ffffffffffffffff82111561241a57612419612174565b5b602082029050602081019050919050565b600080fd5b600061244361243e846123ff565b6121d4565b905080838252602082019050602084028301858111156124665761246561242b565b5b835b8181101561248f578061247b888261201f565b845260208401935050602081019050612468565b5050509392505050565b600082601f8301126124ae576124ad612159565b5b81356124be848260208601612430565b91505092915050565b600067ffffffffffffffff8211156124e2576124e1612174565b5b6124eb82612163565b9050602081019050919050565b600061250b612506846124c7565b6121d4565b9050828152602081018484840111156125275761252661215e565b5b612532848285612220565b509392505050565b600082601f83011261254f5761254e612159565b5b813561255f8482602086016124f8565b91505092915050565b600080600080600060a0868803121561258457612583611f96565b5b600061259288828901611fe9565b95505060206125a388828901611fe9565b945050604086013567ffffffffffffffff8111156125c4576125c3611f9b565b5b6125d088828901612499565b935050606086013567ffffffffffffffff8111156125f1576125f0611f9b565b5b6125fd88828901612499565b925050608086013567ffffffffffffffff81111561261e5761261d611f9b565b5b61262a8882890161253a565b9150509295509295909350565b600067ffffffffffffffff82111561265257612651612174565b5b602082029050602081019050919050565b600061267661267184612637565b6121d4565b905080838252602082019050602084028301858111156126995761269861242b565b5b835b818110156126c257806126ae8882611fe9565b84526020840193505060208101905061269b565b5050509392505050565b600082601f8301126126e1576126e0612159565b5b81356126f1848260208601612663565b91505092915050565b6000806040838503121561271157612710611f96565b5b600083013567ffffffffffffffff81111561272f5761272e611f9b565b5b61273b858286016126cc565b925050602083013567ffffffffffffffff81111561275c5761275b611f9b565b5b61276885828601612499565b9150509250929050565b600081519050919050565b600082825260208201905092915050565b6000819050602082019050919050565b6127a781611ffe565b82525050565b60006127b9838361279e565b60208301905092915050565b6000602082019050919050565b60006127dd82612772565b6127e7818561277d565b93506127f28361278e565b8060005b8381101561282357815161280a88826127ad565b9750612815836127c5565b9250506001810190506127f6565b5085935050505092915050565b6000602082019050818103600083015261284a81846127d2565b905092915050565b61285b81611fc0565b82525050565b60006020820190506128766000830184612852565b92915050565b61288581612123565b811461289057600080fd5b50565b6000813590506128a28161287c565b92915050565b600080604083850312156128bf576128be611f96565b5b60006128cd85828601611fe9565b92505060206128de85828601612893565b9150509250929050565b600080604083850312156128ff576128fe611f96565b5b600083013567ffffffffffffffff81111561291d5761291c611f9b565b5b61292985828601612499565b925050602083013567ffffffffffffffff81111561294a57612949611f9b565b5b61295685828601612499565b9150509250929050565b6000806040838503121561297757612976611f96565b5b600061298585828601611fe9565b925050602061299685828601611fe9565b9150509250929050565b600080600080600060a086880312156129bc576129bb611f96565b5b60006129ca88828901611fe9565b95505060206129db88828901611fe9565b94505060406129ec8882890161201f565b93505060606129fd8882890161201f565b925050608086013567ffffffffffffffff811115612a1e57612a1d611f9b565b5b612a2a8882890161253a565b9150509295509295909350565b600060208284031215612a4d57612a4c611f96565b5b6000612a5b84828501611fe9565b91505092915050565b7f455243313135353a2062616c616e636520717565727920666f7220746865207a60008201527f65726f2061646472657373000000000000000000000000000000000000000000602082015250565b6000612ac0602b836122f3565b9150612acb82612a64565b604082019050919050565b60006020820190508181036000830152612aef81612ab3565b9050919050565b7f4f776e61626c653a2063616c6c6572206973206e6f7420746865206f776e6572600082015250565b6000612b2c6020836122f3565b9150612b3782612af6565b602082019050919050565b60006020820190508181036000830152612b5b81612b1f565b9050919050565b7f4e487b7100000000000000000000000000000000000000000000000000000000600052602260045260246000fd5b60006002820490506001821680612ba957607f821691505b60208210811415612bbd57612bbc612b62565b5b50919050565b7f455243313135353a207472616e736665722063616c6c6572206973206e6f742060008201527f6f776e6572206e6f7220617070726f7665640000000000000000000000000000602082015250565b6000612c1f6032836122f3565b9150612c2a82612bc3565b604082019050919050565b60006020820190508181036000830152612c4e81612c12565b9050919050565b7f455243313135353a206163636f756e747320616e6420696473206c656e67746860008201527f206d69736d617463680000000000000000000000000000000000000000000000602082015250565b6000612cb16029836122f3565b9150612cbc82612c55565b604082019050919050565b60006020820190508181036000830152612ce081612ca4565b9050919050565b7f4e487b7100000000000000000000000000000000000000000000000000000000600052603260045260246000fd5b7f4e487b7100000000000000000000000000000000000000000000000000000000600052601160045260246000fd5b6000612d5082611ffe565b91507fffffffffffffffffffffffffffffffffffffffffffffffffffffffffffffffff821415612d8357612d82612d16565b5b600182019050919050565b7f455243313135353a2063616c6c6572206973206e6f74206f776e6572206e6f7260008201527f20617070726f7665640000000000000000000000000000000000000000000000602082015250565b6000612dea6029836122f3565b9150612df582612d8e565b604082019050919050565b60006020820190508181036000830152612e1981612ddd565b9050919050565b7f4f776e61626c653a206e6577206f776e657220697320746865207a65726f206160008201527f6464726573730000000000000000000000000000000000000000000000000000602082015250565b6000612e7c6026836122f3565b9150612e8782612e20565b604082019050919050565b60006020820190508181036000830152612eab81612e6f565b9050919050565b7f455243313135353a206d696e7420746f20746865207a65726f2061646472657360008201527f7300000000000000000000000000000000000000000000000000000000000000602082015250565b6000612f0e6021836122f3565b9150612f1982612eb2565b604082019050919050565b60006020820190508181036000830152612f3d81612f01565b9050919050565b6000612f4f82611ffe565b9150612f5a83611ffe565b9250827fffffffffffffffffffffffffffffffffffffffffffffffffffffffffffffffff03821115612f8f57612f8e612d16565b5b828201905092915050565b6000604082019050612faf6000830185612074565b612fbc6020830184612074565b9392505050565b7f455243313135353a2069647320616e6420616d6f756e7473206c656e6774682060008201527f6d69736d61746368000000000000000000000000000000000000000000000000602082015250565b600061301f6028836122f3565b915061302a82612fc3565b604082019050919050565b6000602082019050818103600083015261304e81613012565b9050919050565b7f455243313135353a207472616e7366657220746f20746865207a65726f20616460008201527f6472657373000000000000000000000000000000000000000000000000000000602082015250565b60006130b16025836122f3565b91506130bc82613055565b604082019050919050565b600060208201905081810360008301526130e0816130a4565b9050919050565b7f455243313135353a20696e73756666696369656e742062616c616e636520666f60008201527f72207472616e7366657200000000000000000000000000000000000000000000602082015250565b6000613143602a836122f3565b915061314e826130e7565b604082019050919050565b6000602082019050818103600083015261317281613136565b9050919050565b6000604082019050818103600083015261319381856127d2565b905081810360208301526131a781846127d2565b90509392505050565b7f455243313135353a2073657474696e6720617070726f76616c2073746174757360008201527f20666f722073656c660000000000000000000000000000000000000000000000602082015250565b600061320c6029836122f3565b9150613217826131b0565b604082019050919050565b6000602082019050818103600083015261323b816131ff565b9050919050565b600081519050919050565b600082825260208201905092915050565b600061326982613242565b613273818561324d565b9350613283818560208601612304565b61328c81612163565b840191505092915050565b600060a0820190506132ac6000830188612852565b6132b96020830187612852565b6132c66040830186612074565b6132d36060830185612074565b81810360808301526132e5818461325e565b90509695505050505050565b600081519050613300816120ca565b92915050565b60006020828403121561331c5761331b611f96565b5b600061332a848285016132f1565b91505092915050565b60008160e01c9050919050565b600060033d111561335f5760046000803e61335c600051613333565b90505b90565b600060443d1015613372576133f5565b61337a611f8c565b60043d036004823e80513d602482011167ffffffffffffffff821117156133a25750506133f5565b808201805167ffffffffffffffff8111156133c057505050506133f5565b80602083010160043d0385018111156133dd5750505050506133f5565b6133ec826020018501866121a3565b82955050505050505b90565b7f455243313135353a207472616e7366657220746f206e6f6e204552433131353560008201527f526563656976657220696d706c656d656e746572000000000000000000000000602082015250565b60006134546034836122f3565b915061345f826133f8565b604082019050919050565b6000602082019050818103600083015261348381613447565b9050919050565b7f455243313135353a204552433131353552656365697665722072656a6563746560008201527f6420746f6b656e73000000000000000000000000000000000000000000000000602082015250565b60006134e66028836122f3565b91506134f18261348a565b604082019050919050565b60006020820190508181036000830152613515816134d9565b9050919050565b600060a0820190506135316000830188612852565b61353e6020830187612852565b818103604083015261355081866127d2565b9050818103606083015261356481856127d2565b90508181036080830152613578818461325e565b9050969550505050505056fea2646970667358221220ab034c825e276e72afc74c358fe5ebb9ee27e560a88952e2905f8ed0b81b9d9164736f6c634300080a0033697066733a2f2f516d51645935554862326b3246376b31314768464a3241594a79755842376f5958736e5261334133596f6b6664592f7b69647d2e6a736f6e",
  "immutableReferences": {},
  "source": "// SPDX-License-Identifier: MIT\r\npragma solidity >=0.4.22 <0.9.0;\r\n\r\nimport '@openzeppelin/contracts/token/ERC1155/ERC1155.sol';\r\nimport '@openzeppelin/contracts/access/Ownable.sol';\r\n\r\ncontract ArtNFT is Ownable, ERC1155 {\r\n    // Base URI\r\n    string private baseURI;\r\n    string public name;\r\n    uint256 public costs = 0.05 ether;\r\n    address public store;\r\n\r\n    constructor()\r\n        ERC1155(\r\n            'ipfs://QmQdY5UHb2k2F7k11GhFJ2AYJyuXB7oYXsnRa3A3YokfdY/{id}.json'\r\n        )\r\n    {\r\n        setName('MY collectiblezz');\r\n    }\r\n\r\n    function setURI(string memory _newuri) public onlyOwner {\r\n        _setURI(_newuri);\r\n    }\r\n\r\n    function setName(string memory _name) public onlyOwner {\r\n        name = _name;\r\n    }\r\n\r\n    function mintBatch(uint256[] memory ids, uint256[] memory amounts)payable\r\n        public\r\n        onlyOwner\r\n    {\r\n        _mintBatch(msg.sender, ids, amounts, '');\r\n    }\r\n  \r\n    function mint(uint256 id, uint256 amount) payable public onlyOwner {\r\n        \r\n        _mint(msg.sender, id, amount, '');\r\n    }\r\n}",
  "sourcePath": "D:\\ERC1155 FINAL\\MintNFTS\\contracts\\NFT.sol",
  "compiler": {
    "name": "solc",
    "version": "0.8.10+commit.fc410830.Emscripten.clang"
  },
  "schemaVersion": "3.4.4",
  "updatedAt": "2022-05-19T16:06:07.183Z",
  "devdoc": {
    "kind": "dev",
    "methods": {
      "balanceOf(address,uint256)": {
        "details": "See {IERC1155-balanceOf}. Requirements: - `account` cannot be the zero address."
      },
      "balanceOfBatch(address[],uint256[])": {
        "details": "See {IERC1155-balanceOfBatch}. Requirements: - `accounts` and `ids` must have the same length."
      },
      "isApprovedForAll(address,address)": {
        "details": "See {IERC1155-isApprovedForAll}."
      },
      "owner()": {
        "details": "Returns the address of the current owner."
      },
      "renounceOwnership()": {
        "details": "Leaves the contract without owner. It will not be possible to call `onlyOwner` functions anymore. Can only be called by the current owner. NOTE: Renouncing ownership will leave the contract without an owner, thereby removing any functionality that is only available to the owner."
      },
      "safeBatchTransferFrom(address,address,uint256[],uint256[],bytes)": {
        "details": "See {IERC1155-safeBatchTransferFrom}."
      },
      "safeTransferFrom(address,address,uint256,uint256,bytes)": {
        "details": "See {IERC1155-safeTransferFrom}."
      },
      "setApprovalForAll(address,bool)": {
        "details": "See {IERC1155-setApprovalForAll}."
      },
      "supportsInterface(bytes4)": {
        "details": "See {IERC165-supportsInterface}."
      },
      "transferOwnership(address)": {
        "details": "Transfers ownership of the contract to a new account (`newOwner`). Can only be called by the current owner."
      },
      "uri(uint256)": {
        "details": "See {IERC1155MetadataURI-uri}. This implementation returns the same URI for *all* token types. It relies on the token type ID substitution mechanism https://eips.ethereum.org/EIPS/eip-1155#metadata[defined in the EIP]. Clients calling this function must replace the `\\{id\\}` substring with the actual token type ID."
      }
    },
    "version": 1
  },
  "userdoc": {
    "kind": "user",
    "methods": {},
    "version": 1
  }
}